{
  "contractName": "CrowdFunding",
  "abi": [
    {
      "inputs": [],
      "stateMutability": "nonpayable",
      "type": "constructor"
    },
    {
      "inputs": [
        {
          "internalType": "uint256",
          "name": "",
          "type": "uint256"
        }
      ],
      "name": "cases",
      "outputs": [
        {
          "internalType": "string",
          "name": "name",
          "type": "string"
        },
        {
          "internalType": "string",
          "name": "description",
          "type": "string"
        },
        {
          "internalType": "uint256",
          "name": "targetFund",
          "type": "uint256"
        },
        {
          "internalType": "uint256",
          "name": "moneyReceived",
          "type": "uint256"
        },
        {
          "internalType": "uint256",
          "name": "likes",
          "type": "uint256"
        },
        {
          "internalType": "uint256",
          "name": "id",
          "type": "uint256"
        },
        {
          "internalType": "bool",
          "name": "isFundingComplete",
          "type": "bool"
        }
      ],
      "stateMutability": "view",
      "type": "function",
      "constant": true
    },
    {
      "inputs": [
        {
          "internalType": "string",
          "name": "_name",
          "type": "string"
        },
        {
          "internalType": "string",
          "name": "_desc",
          "type": "string"
        },
        {
          "internalType": "uint256",
          "name": "targetFund",
          "type": "uint256"
        }
      ],
      "name": "registerCase",
      "outputs": [],
      "stateMutability": "payable",
      "type": "function",
      "payable": true
    },
    {
      "inputs": [],
      "name": "withdrawContractFee",
      "outputs": [],
      "stateMutability": "nonpayable",
      "type": "function"
    },
    {
      "inputs": [],
      "name": "getAllCases",
      "outputs": [
        {
          "components": [
            {
              "internalType": "string",
              "name": "name",
              "type": "string"
            },
            {
              "internalType": "string",
              "name": "description",
              "type": "string"
            },
            {
              "internalType": "uint256",
              "name": "targetFund",
              "type": "uint256"
            },
            {
              "internalType": "uint256",
              "name": "moneyReceived",
              "type": "uint256"
            },
            {
              "internalType": "uint256",
              "name": "likes",
              "type": "uint256"
            },
            {
              "internalType": "uint256",
              "name": "id",
              "type": "uint256"
            },
            {
              "internalType": "bool",
              "name": "isFundingComplete",
              "type": "bool"
            }
          ],
          "internalType": "struct CrowdFunding.Case[]",
          "name": "",
          "type": "tuple[]"
        }
      ],
      "stateMutability": "view",
      "type": "function",
      "constant": true
    },
    {
      "inputs": [],
      "name": "getAllUnfinishedCases",
      "outputs": [
        {
          "components": [
            {
              "internalType": "string",
              "name": "name",
              "type": "string"
            },
            {
              "internalType": "string",
              "name": "description",
              "type": "string"
            },
            {
              "internalType": "uint256",
              "name": "targetFund",
              "type": "uint256"
            },
            {
              "internalType": "uint256",
              "name": "moneyReceived",
              "type": "uint256"
            },
            {
              "internalType": "uint256",
              "name": "likes",
              "type": "uint256"
            },
            {
              "internalType": "uint256",
              "name": "id",
              "type": "uint256"
            },
            {
              "internalType": "bool",
              "name": "isFundingComplete",
              "type": "bool"
            }
          ],
          "internalType": "struct CrowdFunding.Case[]",
          "name": "",
          "type": "tuple[]"
        }
      ],
      "stateMutability": "view",
      "type": "function",
      "constant": true
    },
    {
      "inputs": [],
      "name": "getAllUserCases",
      "outputs": [
        {
          "components": [
            {
              "internalType": "string",
              "name": "name",
              "type": "string"
            },
            {
              "internalType": "string",
              "name": "description",
              "type": "string"
            },
            {
              "internalType": "uint256",
              "name": "targetFund",
              "type": "uint256"
            },
            {
              "internalType": "uint256",
              "name": "moneyReceived",
              "type": "uint256"
            },
            {
              "internalType": "uint256",
              "name": "likes",
              "type": "uint256"
            },
            {
              "internalType": "uint256",
              "name": "id",
              "type": "uint256"
            },
            {
              "internalType": "bool",
              "name": "isFundingComplete",
              "type": "bool"
            }
          ],
          "internalType": "struct CrowdFunding.Case[]",
          "name": "",
          "type": "tuple[]"
        }
      ],
      "stateMutability": "view",
      "type": "function",
      "constant": true
    },
    {
      "inputs": [],
      "name": "getContractOwner",
      "outputs": [
        {
          "internalType": "address",
          "name": "",
          "type": "address"
        }
      ],
      "stateMutability": "view",
      "type": "function",
      "constant": true
    },
    {
      "inputs": [
        {
          "internalType": "uint256",
          "name": "_caseId",
          "type": "uint256"
        }
      ],
      "name": "togglelikeCase",
      "outputs": [],
      "stateMutability": "nonpayable",
      "type": "function"
    },
    {
      "inputs": [
        {
          "internalType": "uint256",
          "name": "_caseId",
          "type": "uint256"
        }
      ],
      "name": "fundCase",
      "outputs": [],
      "stateMutability": "payable",
      "type": "function",
      "payable": true
    }
  ],
  "bytecode": "0x60806040526000600155671bc16d674ec8000060025534801561002157600080fd5b50336000806101000a81548173ffffffffffffffffffffffffffffffffffffffff021916908373ffffffffffffffffffffffffffffffffffffffff1602179055506119e4806100716000396000f3fe6080604052600436106100865760003560e01c8063442890d511610059578063442890d514610119578063c92d8a8a14610144578063d0322e081461015b578063f09790dd14610184578063fb40c22a146101c757610086565b806308701ef31461008b57806309eab208146100b65780631f8e4df7146100d2578063296b7533146100fd575b600080fd5b34801561009757600080fd5b506100a06101f2565b6040516100ad9190611401565b60405180910390f35b6100d060048036038101906100cb9190611598565b610528565b005b3480156100de57600080fd5b506100e7610753565b6040516100f49190611401565b60405180910390f35b61011760048036038101906101129190611623565b6109da565b005b34801561012557600080fd5b5061012e610ba4565b60405161013b9190611691565b60405180910390f35b34801561015057600080fd5b50610159610bcd565b005b34801561016757600080fd5b50610182600480360381019061017d9190611623565b610c8e565b005b34801561019057600080fd5b506101ab60048036038101906101a69190611623565b610db8565b6040516101be9796959493929190611714565b60405180910390f35b3480156101d357600080fd5b506101dc610f27565b6040516101e99190611401565b60405180910390f35b60606000600560003373ffffffffffffffffffffffffffffffffffffffff1673ffffffffffffffffffffffffffffffffffffffff1681526020019081526020016000205490506000600380549050905060008267ffffffffffffffff81111561025e5761025d611441565b5b60405190808252806020026020018201604052801561029757816020015b6102846110ed565b81526020019060019003908161027c5790505b5090506000805b8381101561051d57600381815481106102ba576102b9611791565b5b906000526020600020906007020160060160009054906101000a900460ff1615801561034457503373ffffffffffffffffffffffffffffffffffffffff166004600083815260200190815260200160002060009054906101000a900473ffffffffffffffffffffffffffffffffffffffff1673ffffffffffffffffffffffffffffffffffffffff16145b1561050a576003818154811061035d5761035c611791565b5b90600052602060002090600702016040518060e0016040529081600082018054610386906117ef565b80601f01602080910402602001604051908101604052809291908181526020018280546103b2906117ef565b80156103ff5780601f106103d4576101008083540402835291602001916103ff565b820191906000526020600020905b8154815290600101906020018083116103e257829003601f168201915b50505050508152602001600182018054610418906117ef565b80601f0160208091040260200160405190810160405280929190818152602001828054610444906117ef565b80156104915780601f1061046657610100808354040283529160200191610491565b820191906000526020600020905b81548152906001019060200180831161047457829003601f168201915b50505050508152602001600282015481526020016003820154815260200160048201548152602001600582015481526020016006820160009054906101000a900460ff1615151515815250508383815181106104f0576104ef611791565b5b6020026020010181905250818061050690611850565b9250505b808061051590611850565b91505061029e565b508194505050505090565b600254341461053657600080fd5b6000600380549050905060036040518060e00160405280868152602001858152602001848152602001600081526020016000815260200183815260200160001515815250908060018154018082558091505060019003906000526020600020906007020160009091909190915060008201518160000190805190602001906105bf92919061112c565b5060208201518160010190805190602001906105dc92919061112c565b5060408201518160020155606082015181600301556080820151816004015560a0820151816005015560c08201518160060160006101000a81548160ff0219169083151502179055505050336004600083815260200190815260200160002060006101000a81548173ffffffffffffffffffffffffffffffffffffffff021916908373ffffffffffffffffffffffffffffffffffffffff160217905550600560003373ffffffffffffffffffffffffffffffffffffffff1673ffffffffffffffffffffffffffffffffffffffff16815260200190815260200160002060008154809291906106c990611850565b9190505550600160008154809291906106e190611850565b919050555060008054906101000a900473ffffffffffffffffffffffffffffffffffffffff1673ffffffffffffffffffffffffffffffffffffffff166108fc349081150290604051600060405180830381858888f1935050505015801561074c573d6000803e3d6000fd5b5050505050565b606060006003805490509050600060015467ffffffffffffffff81111561077d5761077c611441565b5b6040519080825280602002602001820160405280156107b657816020015b6107a36110ed565b81526020019060019003908161079b5790505b5090506000805b838110156109d057600381815481106107d9576107d8611791565b5b906000526020600020906007020160060160009054906101000a900460ff166109bd57600381815481106108105761080f611791565b5b90600052602060002090600702016040518060e0016040529081600082018054610839906117ef565b80601f0160208091040260200160405190810160405280929190818152602001828054610865906117ef565b80156108b25780601f10610887576101008083540402835291602001916108b2565b820191906000526020600020905b81548152906001019060200180831161089557829003601f168201915b505050505081526020016001820180546108cb906117ef565b80601f01602080910402602001604051908101604052809291908181526020018280546108f7906117ef565b80156109445780601f1061091957610100808354040283529160200191610944565b820191906000526020600020905b81548152906001019060200180831161092757829003601f168201915b50505050508152602001600282015481526020016003820154815260200160048201548152602001600582015481526020016006820160009054906101000a900460ff1615151515815250508383815181106109a3576109a2611791565b5b602002602001018190525081806109b990611850565b9250505b80806109c890611850565b9150506107bd565b5081935050505090565b60003410156109e857600080fd5b60006004600083815260200190815260200160002060009054906101000a900473ffffffffffffffffffffffffffffffffffffffff1690503460038381548110610a3557610a34611791565b5b90600052602060002090600702016003016000828254610a559190611899565b9250508190555060038281548110610a7057610a6f611791565b5b90600052602060002090600702016002015460038381548110610a9657610a95611791565b5b90600052602060002090600702016003015410610b5957600160038381548110610ac357610ac2611791565b5b906000526020600020906007020160060160006101000a81548160ff02191690831515021790555060016000815480929190610afe906118ef565b9190505550600560008273ffffffffffffffffffffffffffffffffffffffff1673ffffffffffffffffffffffffffffffffffffffff1681526020019081526020016000206000815480929190610b53906118ef565b91905055505b8073ffffffffffffffffffffffffffffffffffffffff166108fc349081150290604051600060405180830381858888f19350505050158015610b9f573d6000803e3d6000fd5b505050565b60008060009054906101000a900473ffffffffffffffffffffffffffffffffffffffff16905090565b60008054906101000a900473ffffffffffffffffffffffffffffffffffffffff1673ffffffffffffffffffffffffffffffffffffffff163373ffffffffffffffffffffffffffffffffffffffff1614610c2557600080fd5b60008054906101000a900473ffffffffffffffffffffffffffffffffffffffff1673ffffffffffffffffffffffffffffffffffffffff166108fc479081150290604051600060405180830381858888f19350505050158015610c8b573d6000803e3d6000fd5b50565b60003382604051602001610ca3929190611982565b6040516020818303038152906040528051906020012090506006600082815260200190815260200160002060009054906101000a900460ff16610d4c5760038281548110610cf457610cf3611791565b5b90600052602060002090600702016004016000815480929190610d1690611850565b919050555060016006600083815260200190815260200160002060006101000a81548160ff021916908315150217905550610db4565b60038281548110610d6057610d5f611791565b5b90600052602060002090600702016004016000815480929190610d82906118ef565b919050555060006006600083815260200190815260200160002060006101000a81548160ff0219169083151502179055505b5050565b60038181548110610dc857600080fd5b9060005260206000209060070201600091509050806000018054610deb906117ef565b80601f0160208091040260200160405190810160405280929190818152602001828054610e17906117ef565b8015610e645780601f10610e3957610100808354040283529160200191610e64565b820191906000526020600020905b815481529060010190602001808311610e4757829003601f168201915b505050505090806001018054610e79906117ef565b80601f0160208091040260200160405190810160405280929190818152602001828054610ea5906117ef565b8015610ef25780601f10610ec757610100808354040283529160200191610ef2565b820191906000526020600020905b815481529060010190602001808311610ed557829003601f168201915b5050505050908060020154908060030154908060040154908060050154908060060160009054906101000a900460ff16905087565b60606003805480602002602001604051908101604052809291908181526020016000905b828210156110e457838290600052602060002090600702016040518060e0016040529081600082018054610f7e906117ef565b80601f0160208091040260200160405190810160405280929190818152602001828054610faa906117ef565b8015610ff75780601f10610fcc57610100808354040283529160200191610ff7565b820191906000526020600020905b815481529060010190602001808311610fda57829003601f168201915b50505050508152602001600182018054611010906117ef565b80601f016020809104026020016040519081016040528092919081815260200182805461103c906117ef565b80156110895780601f1061105e57610100808354040283529160200191611089565b820191906000526020600020905b81548152906001019060200180831161106c57829003601f168201915b50505050508152602001600282015481526020016003820154815260200160048201548152602001600582015481526020016006820160009054906101000a900460ff16151515158152505081526020019060010190610f4b565b50505050905090565b6040518060e001604052806060815260200160608152602001600081526020016000815260200160008152602001600081526020016000151581525090565b828054611138906117ef565b90600052602060002090601f01602090048101928261115a57600085556111a1565b82601f1061117357805160ff19168380011785556111a1565b828001600101855582156111a1579182015b828111156111a0578251825591602001919060010190611185565b5b5090506111ae91906111b2565b5090565b5b808211156111cb5760008160009055506001016111b3565b5090565b600081519050919050565b600082825260208201905092915050565b6000819050602082019050919050565b600081519050919050565b600082825260208201905092915050565b60005b8381101561123557808201518184015260208101905061121a565b83811115611244576000848401525b50505050565b6000601f19601f8301169050919050565b6000611266826111fb565b6112708185611206565b9350611280818560208601611217565b6112898161124a565b840191505092915050565b6000819050919050565b6112a781611294565b82525050565b60008115159050919050565b6112c2816112ad565b82525050565b600060e08301600083015184820360008601526112e5828261125b565b915050602083015184820360208601526112ff828261125b565b9150506040830151611314604086018261129e565b506060830151611327606086018261129e565b50608083015161133a608086018261129e565b5060a083015161134d60a086018261129e565b5060c083015161136060c08601826112b9565b508091505092915050565b600061137783836112c8565b905092915050565b6000602082019050919050565b6000611397826111cf565b6113a181856111da565b9350836020820285016113b3856111eb565b8060005b858110156113ef57848403895281516113d0858261136b565b94506113db8361137f565b925060208a019950506001810190506113b7565b50829750879550505050505092915050565b6000602082019050818103600083015261141b818461138c565b905092915050565b6000604051905090565b600080fd5b600080fd5b600080fd5b600080fd5b7f4e487b7100000000000000000000000000000000000000000000000000000000600052604160045260246000fd5b6114798261124a565b810181811067ffffffffffffffff8211171561149857611497611441565b5b80604052505050565b60006114ab611423565b90506114b78282611470565b919050565b600067ffffffffffffffff8211156114d7576114d6611441565b5b6114e08261124a565b9050602081019050919050565b82818337600083830152505050565b600061150f61150a846114bc565b6114a1565b90508281526020810184848401111561152b5761152a61143c565b5b6115368482856114ed565b509392505050565b600082601f83011261155357611552611437565b5b81356115638482602086016114fc565b91505092915050565b61157581611294565b811461158057600080fd5b50565b6000813590506115928161156c565b92915050565b6000806000606084860312156115b1576115b061142d565b5b600084013567ffffffffffffffff8111156115cf576115ce611432565b5b6115db8682870161153e565b935050602084013567ffffffffffffffff8111156115fc576115fb611432565b5b6116088682870161153e565b925050604061161986828701611583565b9150509250925092565b6000602082840312156116395761163861142d565b5b600061164784828501611583565b91505092915050565b600073ffffffffffffffffffffffffffffffffffffffff82169050919050565b600061167b82611650565b9050919050565b61168b81611670565b82525050565b60006020820190506116a66000830184611682565b92915050565b600082825260208201905092915050565b60006116c8826111fb565b6116d281856116ac565b93506116e2818560208601611217565b6116eb8161124a565b840191505092915050565b6116ff81611294565b82525050565b61170e816112ad565b82525050565b600060e082019050818103600083015261172e818a6116bd565b9050818103602083015261174281896116bd565b905061175160408301886116f6565b61175e60608301876116f6565b61176b60808301866116f6565b61177860a08301856116f6565b61178560c0830184611705565b98975050505050505050565b7f4e487b7100000000000000000000000000000000000000000000000000000000600052603260045260246000fd5b7f4e487b7100000000000000000000000000000000000000000000000000000000600052602260045260246000fd5b6000600282049050600182168061180757607f821691505b6020821081141561181b5761181a6117c0565b5b50919050565b7f4e487b7100000000000000000000000000000000000000000000000000000000600052601160045260246000fd5b600061185b82611294565b91507fffffffffffffffffffffffffffffffffffffffffffffffffffffffffffffffff82141561188e5761188d611821565b5b600182019050919050565b60006118a482611294565b91506118af83611294565b9250827fffffffffffffffffffffffffffffffffffffffffffffffffffffffffffffffff038211156118e4576118e3611821565b5b828201905092915050565b60006118fa82611294565b9150600082141561190e5761190d611821565b5b600182039050919050565b60008160601b9050919050565b600061193182611919565b9050919050565b600061194382611926565b9050919050565b61195b61195682611670565b611938565b82525050565b6000819050919050565b61197c61197782611294565b611961565b82525050565b600061198e828561194a565b60148201915061199e828461196b565b602082019150819050939250505056fea2646970667358221220ce1594355b2553969b5d62b16f9e81b5b4ee5e6bce973b80dcf71146e5b449a564736f6c634300080a0033",
  "immutableReferences": {},
  "source": "// SPDX-License-Identifier: MIT\npragma solidity 0.8.10;\n\ncontract CrowdFunding {\n    address owner;\n    uint256 unFinishedCases = 0;\n    uint256 StartupRegisterFee = 2 ether;\n\n    constructor() {\n        owner = msg.sender;\n    }\n\n    modifier onlyOwner() {\n        require(msg.sender == owner);\n        _;\n    }\n\n    struct Case {\n        string name;\n        string description;\n        uint256 targetFund;\n        uint256 moneyReceived;\n        uint256 likes;\n        uint256 id;\n        bool isFundingComplete;\n    }\n    Case[] public cases;\n\n    struct UserAndCaseId {\n        address user;\n        uint256 caseId;\n    }\n\n    // mapping from startup id to startup Owner\n    mapping(uint256 => address) case_to_owner;\n\n    mapping(address => uint256) ownerCasesCount;\n\n    // mapping from users to caseId if they already liked or not\n    mapping(bytes32 => bool) UserAlreadyLikedCase;\n\n    function registerCase(\n        string memory _name,\n        string memory _desc,\n        uint256 targetFund\n    ) external payable {\n        require(msg.value == StartupRegisterFee);\n        uint256 id = cases.length;\n        cases.push(Case(_name, _desc, targetFund, 0, 0, id, false));\n        case_to_owner[id] = msg.sender;\n        ownerCasesCount[msg.sender]++;\n        unFinishedCases++;\n        payable(owner).transfer(msg.value);\n    }\n\n    function withdrawContractFee() public onlyOwner {\n        payable(owner).transfer(address(this).balance);\n    }\n\n    function getAllCases() public view returns (Case[] memory) {\n        return cases;\n    }\n\n    // returns only unFinished cases\n    function getAllUnfinishedCases() public view returns (Case[] memory) {\n        uint256 len = cases.length;\n        Case[] memory result = new Case[](unFinishedCases);\n        uint256 indx = 0;\n        for (uint256 i = 0; i < len; i++) {\n            if (!cases[i].isFundingComplete) {\n                result[indx] = cases[i];\n                indx++;\n            }\n        }\n        return result;\n    }\n\n    // returns unfinished cases registered by sender\n    function getAllUserCases() public view returns (Case[] memory) {\n        uint256 len = ownerCasesCount[msg.sender];\n        uint256 total = cases.length;\n        Case[] memory result = new Case[](len);\n        uint256 indx = 0;\n\n        for (uint256 i = 0; i < total; i++) {\n            if (\n                !cases[i].isFundingComplete && (case_to_owner[i] == msg.sender)\n            ) {\n                result[indx] = cases[i];\n                indx++;\n            }\n        }\n        return result;\n    }\n\n    function getContractOwner() external view returns (address) {\n        return owner;\n    }\n\n    function togglelikeCase(uint256 _caseId) external {\n        bytes32 nowHash = keccak256(abi.encodePacked(msg.sender, _caseId));\n        if (!UserAlreadyLikedCase[nowHash]) {\n            cases[_caseId].likes++;\n            UserAlreadyLikedCase[nowHash] = true;\n        } else {\n            cases[_caseId].likes--;\n            UserAlreadyLikedCase[nowHash] = false;\n        }\n    }\n\n    function fundCase(uint256 _caseId) public payable {\n        require(msg.value >= 0);\n        address caseOwner = case_to_owner[_caseId];\n        cases[_caseId].moneyReceived += msg.value;\n        if (cases[_caseId].moneyReceived >= cases[_caseId].targetFund) {\n            cases[_caseId].isFundingComplete = true;\n            unFinishedCases--;\n            ownerCasesCount[caseOwner]--;\n        }\n        payable(caseOwner).transfer(msg.value);\n    }\n}\n",
  "sourcePath": "/home/abeshek/Programming/Dapps/advCryptoDapp/contracts/CrowdFunding.sol",
  "compiler": {
    "name": "solc",
    "version": "0.8.10+commit.fc410830.Emscripten.clang"
  },
  "schemaVersion": "3.4.3",
  "updatedAt": "2021-11-25T08:56:11.881Z",
  "networkType": "ethereum",
  "devdoc": {
    "kind": "dev",
    "methods": {},
    "version": 1
  },
  "userdoc": {
    "kind": "user",
    "methods": {},
    "version": 1
  }
}