{
  "contractName": "TransferEth",
  "abi": [
    {
      "inputs": [],
      "stateMutability": "nonpayable",
      "type": "constructor"
    },
    {
      "anonymous": false,
      "inputs": [
        {
          "indexed": false,
          "internalType": "address",
          "name": "_from",
          "type": "address"
        },
        {
          "indexed": false,
          "internalType": "address",
          "name": "_to",
          "type": "address"
        },
        {
          "indexed": false,
          "internalType": "uint256",
          "name": "val",
          "type": "uint256"
        }
      ],
      "name": "transferEvent",
      "type": "event"
    },
    {
      "inputs": [],
      "name": "getOwnerAddress",
      "outputs": [
        {
          "internalType": "address",
          "name": "",
          "type": "address"
        }
      ],
      "stateMutability": "view",
      "type": "function"
    },
    {
      "inputs": [],
      "name": "withdraw",
      "outputs": [],
      "stateMutability": "nonpayable",
      "type": "function"
    },
    {
      "inputs": [],
      "name": "payEth",
      "outputs": [],
      "stateMutability": "payable",
      "type": "function"
    },
    {
      "inputs": [
        {
          "internalType": "address",
          "name": "_to",
          "type": "address"
        }
      ],
      "name": "payEthToAnotherAddress",
      "outputs": [],
      "stateMutability": "payable",
      "type": "function"
    }
  ],
  "bytecode": "0x608060405234801561001057600080fd5b50336000806101000a81548173ffffffffffffffffffffffffffffffffffffffff021916908373ffffffffffffffffffffffffffffffffffffffff160217905550610388806100606000396000f3fe60806040526004361061003f5760003560e01c80630c4f65bd1461004457806321cca59b1461006f578063237969e9146100795780633ccfd60b14610095575b600080fd5b34801561005057600080fd5b506100596100ac565b604051610066919061024a565b60405180910390f35b6100776100d5565b005b610093600480360381019061008e9190610296565b6100f0565b005b3480156100a157600080fd5b506100aa610148565b005b60008060009054906101000a900473ffffffffffffffffffffffffffffffffffffffff16905090565b34600160008282546100e791906102fc565b92505081905550565b60003410156100fe57600080fd5b8073ffffffffffffffffffffffffffffffffffffffff166108fc349081150290604051600060405180830381858888f19350505050158015610144573d6000803e3d6000fd5b5050565b60008054906101000a900473ffffffffffffffffffffffffffffffffffffffff1673ffffffffffffffffffffffffffffffffffffffff163373ffffffffffffffffffffffffffffffffffffffff16146101a057600080fd5b60008054906101000a900473ffffffffffffffffffffffffffffffffffffffff1673ffffffffffffffffffffffffffffffffffffffff166108fc479081150290604051600060405180830381858888f19350505050158015610206573d6000803e3d6000fd5b50565b600073ffffffffffffffffffffffffffffffffffffffff82169050919050565b600061023482610209565b9050919050565b61024481610229565b82525050565b600060208201905061025f600083018461023b565b92915050565b600080fd5b61027381610229565b811461027e57600080fd5b50565b6000813590506102908161026a565b92915050565b6000602082840312156102ac576102ab610265565b5b60006102ba84828501610281565b91505092915050565b6000819050919050565b7f4e487b7100000000000000000000000000000000000000000000000000000000600052601160045260246000fd5b6000610307826102c3565b9150610312836102c3565b9250827fffffffffffffffffffffffffffffffffffffffffffffffffffffffffffffffff03821115610347576103466102cd565b5b82820190509291505056fea26469706673582212204829b2b1ad746b02ccc9d3d4a2af0e38f1ea83a10d0c6196237900f0572aa59c64736f6c634300080a0033",
  "immutableReferences": {},
  "source": "// SPDX-License-Identifier: MIT\npragma solidity 0.8.10;\n\ncontract TransferEth {\n    address owner;\n    uint contractBank;\n    mapping (address => uint) netWorth;\n    event transferEvent(address _from, address _to, uint val);\n    constructor(){\n        owner = msg.sender;\n    }\n    \n    modifier onlyOwner() {\n        require(msg.sender == owner);\n        _;\n    }\n\n    function getOwnerAddress() public view returns (address) {\n        return owner;\n    }\n\n    function withdraw() public onlyOwner {\n        payable(owner).transfer(address(this).balance);\n    }\n\n    function payEth() external payable {\n        contractBank += msg.value;\n    }\n\n    function payEthToAnotherAddress(address _to) public payable {\n        require(msg.value >= 0);\n        payable(_to).transfer(msg.value);\n    }\n\n}",
  "sourcePath": "/home/abeshek/Programming/Dapps/advCryptoDapp/contracts/TransferEth.sol",
  "compiler": {
    "name": "solc",
    "version": "0.8.10+commit.fc410830.Emscripten.clang"
  },
  "schemaVersion": "3.4.3",
  "updatedAt": "2021-11-25T08:56:10.958Z",
  "networkType": "ethereum",
  "devdoc": {
    "kind": "dev",
    "methods": {},
    "version": 1
  },
  "userdoc": {
    "kind": "user",
    "methods": {},
    "version": 1
  }
}